{
  "contractName": "EventFactory",
  "abi": [
    {
      "constant": true,
      "inputs": [
        {
          "name": "",
          "type": "uint256"
        }
      ],
      "name": "events",
      "outputs": [
        {
          "name": "creator",
          "type": "address"
        },
        {
          "name": "tickets_address",
          "type": "address"
        },
        {
          "name": "name",
          "type": "string"
        },
        {
          "name": "location",
          "type": "string"
        },
        {
          "name": "event_date",
          "type": "uint256"
        },
        {
          "name": "is_active",
          "type": "bool"
        }
      ],
      "payable": false,
      "stateMutability": "view",
      "type": "function"
    },
    {
      "inputs": [],
      "payable": false,
      "stateMutability": "nonpayable",
      "type": "constructor"
    },
    {
      "anonymous": false,
      "inputs": [
        {
          "indexed": false,
          "name": "creator",
          "type": "address"
        },
        {
          "indexed": false,
          "name": "name",
          "type": "string"
        },
        {
          "indexed": false,
          "name": "eventDate",
          "type": "uint256"
        },
        {
          "indexed": false,
          "name": "location",
          "type": "string"
        },
        {
          "indexed": false,
          "name": "numTickets",
          "type": "uint256"
        },
        {
          "indexed": false,
          "name": "faceValue",
          "type": "uint256"
        }
      ],
      "name": "NewEventCreated",
      "type": "event"
    },
    {
      "anonymous": false,
      "inputs": [
        {
          "indexed": false,
          "name": "buyer",
          "type": "address"
        },
        {
          "indexed": false,
          "name": "ticketid",
          "type": "uint256"
        },
        {
          "indexed": false,
          "name": "name",
          "type": "string"
        },
        {
          "indexed": false,
          "name": "eventid",
          "type": "uint256"
        }
      ],
      "name": "TicketPurchased",
      "type": "event"
    },
    {
      "anonymous": false,
      "inputs": [
        {
          "indexed": false,
          "name": "ids",
          "type": "uint256[]"
        },
        {
          "indexed": false,
          "name": "creator",
          "type": "address"
        },
        {
          "indexed": false,
          "name": "totalEvents",
          "type": "uint256"
        }
      ],
      "name": "CreatorIds",
      "type": "event"
    },
    {
      "constant": false,
      "inputs": [
        {
          "name": "_name",
          "type": "string"
        },
        {
          "name": "_location",
          "type": "string"
        },
        {
          "name": "_eventDate",
          "type": "uint256"
        },
        {
          "name": "_numTickets",
          "type": "uint256"
        },
        {
          "name": "_faceValue",
          "type": "uint256"
        }
      ],
      "name": "createNewEvent",
      "outputs": [
        {
          "name": "",
          "type": "uint256"
        }
      ],
      "payable": false,
      "stateMutability": "nonpayable",
      "type": "function"
    },
    {
      "constant": true,
      "inputs": [],
      "name": "getEventIds",
      "outputs": [
        {
          "name": "",
          "type": "uint256[]"
        }
      ],
      "payable": false,
      "stateMutability": "view",
      "type": "function"
    },
    {
      "constant": true,
      "inputs": [
        {
          "name": "_eventId",
          "type": "uint256"
        }
      ],
      "name": "getEventForId",
      "outputs": [
        {
          "name": "name",
          "type": "string"
        },
        {
          "name": "location",
          "type": "string"
        },
        {
          "name": "eventDate",
          "type": "uint256"
        },
        {
          "name": "tokenAddress",
          "type": "address"
        }
      ],
      "payable": false,
      "stateMutability": "view",
      "type": "function"
    },
    {
      "constant": false,
      "inputs": [
        {
          "name": "_eventId",
          "type": "uint256"
        },
        {
          "name": "ticketId",
          "type": "uint256"
        }
      ],
      "name": "buyTicket",
      "outputs": [],
      "payable": false,
      "stateMutability": "nonpayable",
      "type": "function"
    }
  ],
  "bytecode": "0x6060604052341561000f57600080fd5b6113ba8061001e6000396000f30060606040526004361061006d576000357c0100000000000000000000000000000000000000000000000000000000900463ffffffff1680630b791430146100725780630eada9ed146101f2578063298ec208146103345780632eb15efb146103605780638dbd9ca21461042f575b600080fd5b341561007d57600080fd5b6100936004808035906020019091905050610499565b604051808773ffffffffffffffffffffffffffffffffffffffff1673ffffffffffffffffffffffffffffffffffffffff1681526020018673ffffffffffffffffffffffffffffffffffffffff1673ffffffffffffffffffffffffffffffffffffffff168152602001806020018060200185815260200184151515158152602001838103835287818151815260200191508051906020019080838360005b8381101561014b578082015181840152602081019050610130565b50505050905090810190601f1680156101785780820380516001836020036101000a031916815260200191505b50838103825286818151815260200191508051906020019080838360005b838110156101b1578082015181840152602081019050610196565b50505050905090810190601f1680156101de5780820380516001836020036101000a031916815260200191505b509850505050505050505060405180910390f35b34156101fd57600080fd5b6102136004808035906020019091905050610661565b6040518080602001806020018581526020018473ffffffffffffffffffffffffffffffffffffffff1673ffffffffffffffffffffffffffffffffffffffff168152602001838103835287818151815260200191508051906020019080838360005b8381101561028f578082015181840152602081019050610274565b50505050905090810190601f1680156102bc5780820380516001836020036101000a031916815260200191505b50838103825286818151815260200191508051906020019080838360005b838110156102f55780820151818401526020810190506102da565b50505050905090810190601f1680156103225780820380516001836020036101000a031916815260200191505b50965050505050505060405180910390f35b341561033f57600080fd5b61035e60048080359060200190919080359060200190919050506108e8565b005b341561036b57600080fd5b610419600480803590602001908201803590602001908080601f0160208091040260200160405190810160405280939291908181526020018383808284378201915050505050509190803590602001908201803590602001908080601f01602080910402602001604051908101604052809392919081815260200183838082843782019150505050505091908035906020019091908035906020019091908035906020019091905050610c19565b6040518082815260200191505060405180910390f35b341561043a57600080fd5b610442611053565b6040518080602001828103825283818151815260200191508051906020019060200280838360005b8381101561048557808201518184015260208101905061046a565b505050509050019250505060405180910390f35b6001818154811015156104a857fe5b90600052602060002090600602016000915090508060000160009054906101000a900473ffffffffffffffffffffffffffffffffffffffff16908060010160009054906101000a900473ffffffffffffffffffffffffffffffffffffffff1690806002018054600181600116156101000203166002900480601f0160208091040260200160405190810160405280929190818152602001828054600181600116156101000203166002900480156105a05780601f10610575576101008083540402835291602001916105a0565b820191906000526020600020905b81548152906001019060200180831161058357829003601f168201915b505050505090806003018054600181600116156101000203166002900480601f01602080910402602001604051908101604052809291908181526020018280546001816001161561010002031660029004801561063e5780601f106106135761010080835404028352916020019161063e565b820191906000526020600020905b81548152906001019060200180831161062157829003601f168201915b5050505050908060040154908060050160009054906101000a900460ff16905086565b6106696110ed565b6106716110ed565b60008061067c611101565b600180870381548110151561068d57fe5b906000526020600020906006020160c060405190810160405290816000820160009054906101000a900473ffffffffffffffffffffffffffffffffffffffff1673ffffffffffffffffffffffffffffffffffffffff1673ffffffffffffffffffffffffffffffffffffffff1681526020016001820160009054906101000a900473ffffffffffffffffffffffffffffffffffffffff1673ffffffffffffffffffffffffffffffffffffffff1673ffffffffffffffffffffffffffffffffffffffff168152602001600282018054600181600116156101000203166002900480601f0160208091040260200160405190810160405280929190818152602001828054600181600116156101000203166002900480156107ec5780601f106107c1576101008083540402835291602001916107ec565b820191906000526020600020905b8154815290600101906020018083116107cf57829003601f168201915b50505050508152602001600382018054600181600116156101000203166002900480601f01602080910402602001604051908101604052809291908181526020018280546001816001161561010002031660029004801561088e5780601f106108635761010080835404028352916020019161088e565b820191906000526020600020905b81548152906001019060200180831161087157829003601f168201915b50505050508152602001600482015481526020016005820160009054906101000a900460ff161515151581525050905080604001518160600151826080015183602001518393508292509450945094509450509193509193565b6108f0611101565b6001838154811015156108ff57fe5b906000526020600020906006020160c060405190810160405290816000820160009054906101000a900473ffffffffffffffffffffffffffffffffffffffff1673ffffffffffffffffffffffffffffffffffffffff1673ffffffffffffffffffffffffffffffffffffffff1681526020016001820160009054906101000a900473ffffffffffffffffffffffffffffffffffffffff1673ffffffffffffffffffffffffffffffffffffffff1673ffffffffffffffffffffffffffffffffffffffff168152602001600282018054600181600116156101000203166002900480601f016020809104026020016040519081016040528092919081815260200182805460018160011615610100020316600290048015610a5e5780601f10610a3357610100808354040283529160200191610a5e565b820191906000526020600020905b815481529060010190602001808311610a4157829003601f168201915b50505050508152602001600382018054600181600116156101000203166002900480601f016020809104026020016040519081016040528092919081815260200182805460018160011615610100020316600290048015610b005780601f10610ad557610100808354040283529160200191610b00565b820191906000526020600020905b815481529060010190602001808311610ae357829003601f168201915b50505050508152602001600482015481526020016005820160009054906101000a900460ff16151515158152505090507f10975240183144ceba20e3ae815c79a9732411a60efbf4dac13c2522d527e2be3383836040015186604051808573ffffffffffffffffffffffffffffffffffffffff1673ffffffffffffffffffffffffffffffffffffffff16815260200184815260200180602001838152602001828103825284818151815260200191508051906020019080838360005b83811015610bd7578082015181840152602081019050610bbc565b50505050905090810190601f168015610c045780820380516001836020036101000a031916815260200191505b509550505050505060405180910390a1505050565b60008060018054806001018281610c309190611172565b9160005260206000209060060201600060c0604051908101604052803373ffffffffffffffffffffffffffffffffffffffff168152602001600073ffffffffffffffffffffffffffffffffffffffff1681526020018b81526020018a815260200189815260200160011515815250909190915060008201518160000160006101000a81548173ffffffffffffffffffffffffffffffffffffffff021916908373ffffffffffffffffffffffffffffffffffffffff16021790555060208201518160010160006101000a81548173ffffffffffffffffffffffffffffffffffffffff021916908373ffffffffffffffffffffffffffffffffffffffff1602179055506040820151816002019080519060200190610d4d9291906111a4565b506060820151816003019080519060200190610d6a9291906111a4565b506080820151816004015560a08201518160050160006101000a81548160ff021916908315150217905550505090506000803373ffffffffffffffffffffffffffffffffffffffff1673ffffffffffffffffffffffffffffffffffffffff1681526020019081526020016000208054806001018281610de99190611224565b9160005260206000209001600083909190915055507ff8728635b8fc6340f33d830738eb274f5b230922fe6b83b29eef395aec32c60d338887898888604051808773ffffffffffffffffffffffffffffffffffffffff1673ffffffffffffffffffffffffffffffffffffffff1681526020018060200186815260200180602001858152602001848152602001838103835288818151815260200191508051906020019080838360005b83811015610ead578082015181840152602081019050610e92565b50505050905090810190601f168015610eda5780820380516001836020036101000a031916815260200191505b50838103825286818151815260200191508051906020019080838360005b83811015610f13578082015181840152602081019050610ef8565b50505050905090810190601f168015610f405780820380516001836020036101000a031916815260200191505b509850505050505050505060405180910390a17f1d78cd07b358431da72c7c64243c030b32b4bf7ab43683a4f174505cdd8d1db36000803373ffffffffffffffffffffffffffffffffffffffff1673ffffffffffffffffffffffffffffffffffffffff1681526020019081526020016000203360018054905060405180806020018473ffffffffffffffffffffffffffffffffffffffff1673ffffffffffffffffffffffffffffffffffffffff168152602001838152602001828103825285818154815260200191508054801561103657602002820191906000526020600020905b815481526020019060010190808311611022575b505094505050505060405180910390a18091505095945050505050565b61105b611250565b6000803373ffffffffffffffffffffffffffffffffffffffff1673ffffffffffffffffffffffffffffffffffffffff1681526020019081526020016000208054806020026020016040519081016040528092919081815260200182805480156110e357602002820191906000526020600020905b8154815260200190600101908083116110cf575b5050505050905090565b602060405190810160405280600081525090565b60c060405190810160405280600073ffffffffffffffffffffffffffffffffffffffff168152602001600073ffffffffffffffffffffffffffffffffffffffff16815260200161114f611264565b815260200161115c611264565b8152602001600081526020016000151581525090565b81548183558181151161119f5760060281600602836000526020600020918201910161119e9190611278565b5b505050565b828054600181600116156101000203166002900490600052602060002090601f016020900481019282601f106111e557805160ff1916838001178555611213565b82800160010185558215611213579182015b828111156112125782518255916020019190600101906111f7565b5b5090506112209190611321565b5090565b81548183558181151161124b5781836000526020600020918201910161124a9190611321565b5b505050565b602060405190810160405280600081525090565b602060405190810160405280600081525090565b61131e91905b8082111561131a57600080820160006101000a81549073ffffffffffffffffffffffffffffffffffffffff02191690556001820160006101000a81549073ffffffffffffffffffffffffffffffffffffffff02191690556002820160006112e59190611346565b6003820160006112f59190611346565b60048201600090556005820160006101000a81549060ff02191690555060060161127e565b5090565b90565b61134391905b8082111561133f576000816000905550600101611327565b5090565b90565b50805460018160011615610100020316600290046000825580601f1061136c575061138b565b601f01602090049060005260206000209081019061138a9190611321565b5b505600a165627a7a72305820959688f9c3fa39d32ad8db9930f6050f06479ad673dfc4d303b47d9e40568fca0029",
  "source": "pragma solidity ^0.4.18;\n// import \"./Tickets.sol\";\n\ncontract EventFactory {\n\n\tstruct Event {\n\t\taddress creator;\n\t\taddress tickets_address;\n\t\tstring name;\n\t\tstring location;\n\t\tuint256 event_date;\n\t\tbool is_active;\n\t}\n\n\tmapping(address=>uint[]) creatorToEventIds;\n\tEvent[] public events;\n\n\n\tevent NewEventCreated(address creator, string name, uint eventDate, string location, uint numTickets, uint faceValue);\n\tevent TicketPurchased(address buyer, uint ticketid, string name, uint eventid);\n\tevent CreatorIds(uint[] ids, address creator, uint totalEvents);\n\tfunction EventFactory() public {\n\t}\n\n\tfunction createNewEvent(string _name, string _location, uint _eventDate, \n\t\t\t\t\t\t\tuint _numTickets, uint _faceValue) public returns (uint) {\n\t\t// address ticketsAddress = new Tickets(_numTickets, _faceValue);\n\t\tuint eventId = events.push(Event(msg.sender, 0, _name, _location, _eventDate, true));\n\t\tcreatorToEventIds[msg.sender].push(eventId);\n\t\t\n\t\tNewEventCreated(msg.sender, _name, _eventDate, _location, _numTickets, _faceValue);\n\t\tCreatorIds(creatorToEventIds[msg.sender], msg.sender, events.length);\n\t\treturn eventId;\n\t}\n\n\tfunction getEventIds() public view returns (uint[]) {\n\t\treturn creatorToEventIds[msg.sender];\n\t}\n\n\tfunction getEventForId(uint _eventId) public view returns ( string name, string location, uint256 eventDate, address tokenAddress ) {\n\t\tEvent memory ievent = events[_eventId-1];\n\t\treturn ( ievent.name, ievent.location, ievent.event_date, ievent.tickets_address);\n\t}\n\n\tfunction buyTicket(uint _eventId, uint ticketId ) {\n\t\tEvent memory ievent = events[_eventId];\n\t\t//Tickets tf = Tickets(event.token_factory_address);\n\t\t// Try to buy the ticket - is it for sale? \n\t\t//tf.buyTicket(msg.sender, ticketId);\n\t\tTicketPurchased(msg.sender, ticketId, ievent.name, _eventId);\n\t}\n\n}\n\n",
  "sourcePath": "/Users/preetham/code/blockchain/react/contracts/EventFactory.sol",
  "compiler": {
    "name": "solc",
    "version": "0.4.21+commit.dfe3193c.Emscripten.clang"
  },
  "schemaVersion": "2.0.0",
  "updatedAt": "2018-03-31T21:10:05.808Z"
}